{
    "contractName": "Board",
    "abi": [
        {
            "constant": false,
            "inputs": [],
            "name": "renounceOwnership",
            "outputs": [],
            "payable": false,
            "stateMutability": "nonpayable",
            "type": "function"
        },
        {
            "constant": true,
            "inputs": [],
            "name": "owner",
            "outputs": [
                {
                    "name": "",
                    "type": "address"
                }
            ],
            "payable": false,
            "stateMutability": "view",
            "type": "function"
        },
        {
            "constant": true,
            "inputs": [],
            "name": "isOwner",
            "outputs": [
                {
                    "name": "",
                    "type": "bool"
                }
            ],
            "payable": false,
            "stateMutability": "view",
            "type": "function"
        },
        {
            "constant": true,
            "inputs": [
                {
                    "name": "_addr",
                    "type": "address"
                }
            ],
            "name": "readMsgByUser",
            "outputs": [
                {
                    "name": "",
                    "type": "uint256[]"
                },
                {
                    "name": "",
                    "type": "uint256"
                }
            ],
            "payable": false,
            "stateMutability": "view",
            "type": "function"
        },
        {
            "constant": true,
            "inputs": [
                {
                    "name": "_msg_id",
                    "type": "uint256"
                }
            ],
            "name": "readMsg",
            "outputs": [
                {
                    "name": "",
                    "type": "string"
                },
                {
                    "name": "",
                    "type": "address"
                }
            ],
            "payable": false,
            "stateMutability": "view",
            "type": "function"
        },
        {
            "constant": false,
            "inputs": [
                {
                    "name": "_input",
                    "type": "string"
                }
            ],
            "name": "write",
            "outputs": [],
            "payable": false,
            "stateMutability": "nonpayable",
            "type": "function"
        },
        {
            "constant": false,
            "inputs": [
                {
                    "name": "newOwner",
                    "type": "address"
                }
            ],
            "name": "transferOwnership",
            "outputs": [],
            "payable": false,
            "stateMutability": "nonpayable",
            "type": "function"
        },
        {
            "inputs": [],
            "payable": false,
            "stateMutability": "nonpayable",
            "type": "constructor"
        },
        {
            "anonymous": false,
            "inputs": [
                {
                    "indexed": true,
                    "name": "previousOwner",
                    "type": "address"
                },
                {
                    "indexed": true,
                    "name": "newOwner",
                    "type": "address"
                }
            ],
            "name": "OwnershipTransferred",
            "type": "event"
        }
    ],
    "bytecode": "6080604052600060025534801561001557600080fd5b50600080546001600160a01b03191633178082556040516001600160a01b039190911691907f8be0079c531659141344cd1fd0a4f28419497f9722a3daafe3b4186f6b6457e0908290a36107ca8061006e6000396000f3fe608060405234801561001057600080fd5b506004361061007d5760003560e01c8063b62f30201161005b578063b62f3020146100cc578063bd6823701461014d578063ebaac771146101fb578063f2fde38b146102a15761007d565b8063715018a6146100825780638da5cb5b1461008c5780638f32d59b146100b0575b600080fd5b61008a6102c7565b005b61009461036d565b604080516001600160a01b039092168252519081900360200190f35b6100b861037d565b604080519115158252519081900360200190f35b6100f2600480360360208110156100e257600080fd5b50356001600160a01b031661038e565b6040518080602001838152602001828103825284818151815260200191508051906020019060200280838360005b83811015610138578181015183820152602001610120565b50505050905001935050505060405180910390f35b61016a6004803603602081101561016357600080fd5b5035610419565b6040518080602001836001600160a01b03166001600160a01b03168152602001828103825284818151815260200191508051906020019080838360005b838110156101bf5781810151838201526020016101a7565b50505050905090810190601f1680156101ec5780820380516001836020036101000a031916815260200191505b50935050505060405180910390f35b61008a6004803603602081101561021157600080fd5b81019060208101813564010000000081111561022c57600080fd5b82018360208201111561023e57600080fd5b8035906020019184600183028401116401000000008311171561026057600080fd5b91908080601f0160208091040260200160405190810160405280939291908181526020018383808284376000920191909152509295506104e9945050505050565b61008a600480360360208110156102b757600080fd5b50356001600160a01b03166105b4565b6102cf61037d565b6103235760408051600160e51b62461bcd02815260206004820181905260248201527f4f776e61626c653a2063616c6c6572206973206e6f7420746865206f776e6572604482015290519081900360640190fd5b600080546040516001600160a01b03909116907f8be0079c531659141344cd1fd0a4f28419497f9722a3daafe3b4186f6b6457e0908390a3600080546001600160a01b0319169055565b6000546001600160a01b03165b90565b6000546001600160a01b0316331490565b6001600160a01b038116600090815260046020908152604080832080548251818502810185019093528083526060949385939291908301828280156103f257602002820191906000526020600020905b8154815260200190600101908083116103de575b50505050509050808160008151811061040757fe5b60200260200101519250925050915091565b60606000806003848154811061042b57fe5b600091825260209182902060029182020160018181015482546040805161010094831615949094026000190190911694909404601f810186900486028301860190945283825291945084936001600160a01b039092169290918491908301828280156104d85780601f106104ad576101008083540402835291602001916104d8565b820191906000526020600020905b8154815290600101906020018083116104bb57829003601f168201915b505050505091509250925050915091565b6104f3600161061c565b6104fb6106c8565b506040805180820182528281523360208083018290526000918252600481529281206002805460018082018355835480820185559385528685209093015560038054928301808255935283518051949593948694939092027fc2575a0e9e593c00f959f8c92f12db2869c3395a3b0502d05e2516446f71f85b0192610585928492909101906106e0565b5060209190910151600190910180546001600160a01b0319166001600160a01b03909216919091179055505050565b6105bc61037d565b6106105760408051600160e51b62461bcd02815260206004820181905260248201527f4f776e61626c653a2063616c6c6572206973206e6f7420746865206f776e6572604482015290519081900360640190fd5b61061981610625565b50565b80546001019055565b6001600160a01b03811661066d57604051600160e51b62461bcd0281526004018080602001828103825260268152602001806107796026913960400191505060405180910390fd5b600080546040516001600160a01b03808516939216917f8be0079c531659141344cd1fd0a4f28419497f9722a3daafe3b4186f6b6457e091a3600080546001600160a01b0319166001600160a01b0392909216919091179055565b60408051808201909152606081526000602082015290565b828054600181600116156101000203166002900490600052602060002090601f016020900481019282601f1061072157805160ff191683800117855561074e565b8280016001018555821561074e579182015b8281111561074e578251825591602001919060010190610733565b5061075a92915061075e565b5090565b61037a91905b8082111561075a576000815560010161076456fe4f776e61626c653a206e6577206f776e657220697320746865207a65726f2061646472657373a165627a7a72305820a8da70dfc6d258ec16b79ada35de4bea26d262cad3560c71c07ceb7d1a14daad0029",
    "sourcePath": "/Users/repedore/Documents/project/10_pratice/contract_write_n_view/contracts/Board.sol",
    "compiler": {
        "name": "solc",
        "version": "0.5.6+commit.b259423e"
    },
    "functionHashes": {
        "isOwner()": "8f32d59b",
        "owner()": "8da5cb5b",
        "readMsg(uint256)": "bd682370",
        "readMsgByUser(address)": "b62f3020",
        "renounceOwnership()": "715018a6",
        "transferOwnership(address)": "f2fde38b",
        "write(string)": "ebaac771"
    },
    "gasEstimates": {
        "creation": {
            "codeDepositCost": "398800",
            "executionCost": "27231",
            "totalCost": "426031"
        },
        "external": {
            "isOwner()": "472",
            "owner()": "461",
            "readMsg(uint256)": "infinite",
            "readMsgByUser(address)": "infinite",
            "renounceOwnership()": "22393",
            "transferOwnership(address)": "infinite",
            "write(string)": "infinite"
        }
    }
}